:020000040800F2
:10000000900D0020350200089F2E00089B2E00084E
:100010009D2E0008DB1C0008A13100080000000034
:10002000000000000000000000000000A32E0008F7
:10003000DD1C000800000000A12E0008A52E00080D
:100040004F0200084F0200084F0200084F0200084C
:100050004F0200084F0200084F0200084F0200083C
:100060004F0200084F0200084F0200084F0200082C
:100070004F0200084F0200084F0200084F0200081C
:100080004F0200084F0200084F0200084F0200080C
:100090004F0200084F0200084F0200084F020008FC
:1000A0004F0200084F0200084F0200084F020008EC
:1000B0004F0200084F0200084F0200084F020008DC
:1000C0004F0200084F0200084F0200084F020008CC
:1000D0004F02000889310008953100084F020008DE
:1000E0004F0200084F0200084F02000800F002F81B
:1000F00000F090F80AA090E8000C82448344AAF132
:100100000107DA4501D100F085F8AFF2090EBAE82F
:100110000F0013F0010F18BFFB1A43F0010318473B
:100120004C3B00006C3B0000103A24BF78C878C1FB
:10013000FAD8520724BF30C830C144BF04680C60ED
:10014000704700000023002400250026103A28BF35
:1001500078C1FBD8520728BF30C148BF0B60704739
:100160006E2900F0FB81702900F03D83662903F0C1
:10017000E584652903F0E284672903F0DF846129BF
:1001800003F0DE8403681B0A28BF41F0800169295F
:1001900000F0A881642900F0A581752900F0A281F2
:1001A0006F2900F0CA82782900F00983E92900F05C
:1001B0006582E42900F06282F52900F05F82EF2970
:1001C00000F0C782F82900F008830368DB0928BF24
:1001D00041F08001632901F03D80732901F04280E4
:1001E000E32901F04D80F32901F05280002070478F
:1001F0001FB501F09FF804000020002103F088FCE7
:10020000401C60600020002103F06CFCE0601FBD1A
:1002100010B510BD01F060F81146FFF7E9FF03F0DB
:100220001FF801F03DF903B4FFF7F2FF03BC01F042
:1002300085F900000948804709480047FEE7FEE7C6
:10024000FEE7FEE7FEE7FEE7FEE7FEE7FEE7FEE786
:1002500004480549054A064B70470000072F00086F
:10026000ED00000890070020900D0020900900206C
:1002700090090020B2F120030AD5C2F1200320FA30
:1002800002F001FA03F321FA02F140EA0300704799
:1002900021FA03F04FF00001704700001CB50C4636
:1002A000064B7B4469460090204600F070F90446F6
:1002B0000020694600F07EF920461CBD0F030000B7
:1002C00010B5431C02E010F8011B71B18107FAD18F
:1002D0004FF0013202C88C1A8C4314EAC211F9D0D3
:1002E000C01A0A0603D0C01E10BDC01A10BD0A04F1
:1002F00001D0801E10BD0902FCD0401E10BD032A93
:1003000040F2308010F0030C00F0158011F8013B32
:10031000BCF1020F624498BF11F801CB00F8013B19
:1003200038BF11F8013BA2F1040298BF00F801CBDD
:1003300038BF00F8013B11F0030300F02383083AB3
:10034000C0F0088051F8043B083A51F804CBA0E80B
:100350000810F5E7121D5CBF51F8043B40F8043B60
:10036000AFF30080D20724BF11F8013B11F801CB95
:1003700048BF11F8012B24BF00F8013B00F801CB66
:1003800048BF00F8012B70474FF000020429C0F06D
:10039000128010F0030C00F01B80CCF1040CBCF1B7
:1003A000020F18BF00F8012BA8BF20F8022BA1EB09
:1003B0000C0100F00DB85FEAC17C24BF00F8012BEE
:1003C00000F8012B48BF00F8012B70474FF00002E6
:1003D00000B5134694469646203922BFA0E80C503B
:1003E000A0E80C50B1F12001BFF4F7AF090728BF16
:1003F000A0E80C5048BF0CC05DF804EB890028BF92
:1004000040F8042B08BF704748BF20F8022B11F0BA
:10041000804F18BF00F8012B704770477047704736
:1004200070B5044685690068C10601D5302600E034
:100430002026C00707D070BDD4E90121304690477F
:10044000206A401C20626D1EF6D570BD70B5044652
:1004500085690078C00707D170BDD4E9012120204B
:100460009047206A401C20626D1EF6D570BD096859
:100470004A0501D540B27047C905FCD500B27047A6
:1004800009684A0501D5C0B27047C905FCD580B2DC
:10049000704770B50C460546012A05D028788006BD
:1004A00000D5EA69002302E0012305E05B1C9342CA
:1004B00002D2E05C0028F9D1A869E618C01AA86148
:1004C000286A184428622846FFF7AAFF04E0D5E905
:1004D000012114F8010B9047B442F8D32846FFF7E6
:1004E000B5FF70BD2DE9F04106460024106875295E
:1004F000314616A510D0FFF7BAFF002802DA4042B5
:1005000013A507E031688A0701D512A502E0490763
:1005100004D511A5012401E0FFF7B2FF00210A2252
:1005200006F1240709E0B0FBF2FCB0FBF2F302FB9A
:100530001C00303078541846491C0028F3D123465B
:100540002A463046BDE8F04100F093BA00000000B2
:100550002D0000002B000000200000001168026840
:10056000006A530501D508700AE0D30501D508805B
:1005700006E0130603D5C217C1E9000200E00860D7
:100580000120704701694A1C02610878704700B574
:100590008FB0CDE901310021059105497944CDE9BC
:1005A00003101146684600F029F90FB000BD0000A5
:1005B000E5FFFFFF0A6802F8010B0A6070470000C0
:1005C0002DE9FF5F15468A460446DFF8AC80F84403
:1005D0000027D8E900103E46CDE9001010E03AF8B7
:1005E00016106A4602A800F057FE411C07D0217879
:1005F000890603D5E269391891420DD80744761C63
:100600002078800602D5E069B84205DDAE42E6DB1F
:100610003AF816000028E2D1A069C01BA06120466C
:10062000FFF7FEFED8E90010CDE90010002017E02A
:100630003AF818106A4602A800F02EFEB0F1FF3F0B
:1006400081460BD000250DF1080B05E0D4E901210E
:100650001BF8050090476D1C4D45F7D308F10100CC
:10066000B0428046E4DB206A384420622046FFF72F
:10067000EDFEBDE8FF9F00009E3500002DE9F04132
:100680008046D21D22F007020025D2E90002F5299A
:1006900015A614D0011E72F1000106DA0023D0EB7A
:1006A000030063EB020211A608E0D8F800108B07E4
:1006B00001D50FA602E0490701D50EA60125114676
:1006C000002408F1240704E000F08EF930323A5596
:1006D000641C50EA0102F7D12B46324621464046BF
:1006E000BDE8F04100F0C5B9000000002D00000099
:1006F0002B0000002000000030B4002100F1240491
:1007000008E002F00705D208303542EA4372DB0800
:100710006554491C52EA0305F3D10468002310A272
:10072000250707D5A40600D421B1C46901230DA271
:10073000641EC46130BC00F09CB910B5044621466B
:100740001068FFF79DFE02462046BDE810400023DA
:10075000D2E7D21D22F00701D1E90023CCE7000047
:100760000000000030000000F0B40D4601880905CB
:1007700002D5214C7C4402E01F4C7C440E34002105
:1007800000F1240608E002F00F071209E75D42EAD3
:1007900003721B097754491C52EA0307F3D102780C
:1007A0000023120704D5702D06D009B1022311349D
:1007B0002246F0BC00F05DB901231034F8E770B5B3
:1007C00004460D4621461068FFF75AFE02462946A8
:1007D0002046BDE870400023C6E7D21D22F0070383
:1007E000D3E90023C0E70368126843F020030360E5
:1007F0000823C3610023B7E7003400002DE9F05F50
:10080000894604464FF0000ADFF874B1FB44C0F893
:1008100020A02046E1688847002874D0252806D00B
:10082000D4E901219047206A401C2062F1E70026AC
:100830005F462046E16888472028054607DB312DC2
:1008400005D2781910F8200C08B10643F1E7B0077B
:1008500001D526F00406C4F81CA00027C4F818A08F
:100860002A2D09D0284602F0C0FC38B304EB8708D3
:10087000303DC8F8185019E059F8041B204604EB25
:1008800087029161E1688847012F054618D1E06928
:10089000002820DA26F020061DE0D8F8180000EB2A
:1008A000800005EB40003038C8F818002046E168A9
:1008B0008847054602F099FC0028EED1012F0AD0A6
:1008C0002E2D08D12046E16888477F1C0546022F5F
:1008D00046F02006C4DBA069002803DA404246F057
:1008E0000106A061F00701D026F010066C2D0BD098
:1008F000682D09D04C2D39D06A2D35D0742D35D0C6
:100900007A2D33D016E038E0E1682F46204688473C
:10091000B842054609D16C2F26D04FF48060E168BB
:10092000064320468847054604E06C2F1AD04FF452
:10093000807006430DB3A5F14100192802D8203577
:1009400046F400664A462946204626604E46FFF792
:1009500007FC80B101280BD0F61D26F0070000F13E
:10096000080956E74020E4E78020D8E70020D6E7D2
:1009700006F104094DE7284652E7206ABDE8F09FDA
:100980009033000010B5203AC0F00B80B1E8185049
:10099000203AA0E81850B1E81850A0E81850BFF469
:1009A000F5AF5FEA027C24BFB1E81850A0E8185008
:1009B00044BF18C918C0BDE810405FEA827C24BF5C
:1009C00051F8043B40F8043B08BF7047D20728BFEA
:1009D00031F8023B48BF11F8012B28BF20F8023B39
:1009E00048BF00F8012B704730B5B0F10A024FEA5A
:1009F000900E71F100034EEA817EB0EB0E0061EBC8
:100A000091014FEA101E4EEA017E10EB0E0041EB01
:100A100011114FEA102E4EEA016E10EB0E0041EB61
:100A200011214FEA104E4EEA014E10EB0E0041EB41
:100A30001141401841F100014FEAD00040EA4170F5
:100A40004FEAD10110EB80054FEA810444EA90742B
:100A500044EB01046D1944EB0404521BA3414FF015
:100A6000000348BF0A3200D530BD401C41F10001EF
:100A700030BD2DE9F0470D4699469246044600F1F7
:100A800024080168880604D5E06921F0100121607E
:100A900000E00120A84201DD471B00E00027A1691A
:100AA0007A1902EB0900081AA0612078C00602D466
:100AB0002046FFF7B5FC002608E0D4E901211AF82A
:100AC00006009047206A401C761C20624E45F4DBED
:100AD0002078C0060AD52046FFF7A2FC06E0D4E93C
:100AE000012130209047206A401C2062381EA7F167
:100AF0000107F4DC07E0D4E9012118F8050090476C
:100B0000206A401C2062281EA5F10105F3DC204666
:100B1000FFF79CFC2078000602D50220BDE8F08794
:100B20000120FBE770472DE9FF4F0C461E464FF0B2
:100B3000FF378BB0D2E90001DDF860800A908A4669
:100B4000C1F30A5505B93D46002108464FF00000A3
:100B5000BAF1000F00F4400005DA00EB80004FF41A
:100B6000400101EA50004FEA9059B9F1010F00DD50
:100B7000B9460A9850EA4A000ED044F61050A5F241
:100B8000FF3545432F14B8F1000F1ED07542291EC2
:100B90001EDDC9F100021CE0B8F1010F4FF00000AA
:100BA00001D0302103E0F24305E02154401CB04263
:100BB000FBDB30460022002121540B99C1F808804C
:100BC000C1E900200FB0BDE8F08FBD1B6D1CDEE752
:100BD0004A4600DA694206A800F0F0FB06AB93E84B
:100BE000070003AB83E8070050460A9900F0ADFC0C
:100BF0008DE80700A0F500501F3800900398002DE5
:100C00000ADD42F21F014A460844002303A903906B
:100C1000684600F016FF09E0A0F500504A461F386C
:100C2000002303A90390684600F020FF8DE8070029
:100C30000004000C03D04FF0FF30410800E01046E4
:100C4000B8F1000F03D00022009215461EE0751E79
:100C500005D4FFF7C9FE303262556D1EF9D5B34693
:100C60000122084302D000227F1C04E020783028B3
:100C700001D100227F1E002A099784D01DE0112D8A
:100C800007DAFFF7B1FE303262556D1C50EA0102FF
:100C9000F5D1084302D00098C8B10EE00021681ECB
:100CA00005E0235C625C63542254401E491C81426F
:100CB000F7DBAB46A81B401E0990002004F80B0090
:100CC0000B98099AC0F80880C0E9002B7AE7112632
:100CD0004FF0000857E72DE9F04F88460446D21D33
:100CE00022F0070191B0D1E90001CDE90A0102F03B
:100CF00058FA02460B98C00F01D02D2007E020685B
:100D0000810701D52B2002E0202101EAC000032A3F
:100D1000099001D0072A05DB03464146204600F032
:100D20000DFB0BE12078800601D5E06900E006208C
:100D3000B8F1650F814606D0B8F1660F18D0B8F14A
:100D4000670F70D131E00020B9F1110F009001DB85
:100D5000112301E009F101030AAA01A90CA8FFF778
:100D6000E2FEDDE90C70002609F10105834647E04B
:100D700001204B4600904FF000470AAA01A90CA899
:100D8000FFF7D1FEDDE90DB00C995D46002610B9E4
:100D900009F101000D18B9EB050003D4C0F1FF36CD
:100DA00009F10105A5EB09002BE0B9F1010F01DA0A
:100DB0004FF001090020B9F1110F0090484601DD04
:100DC000112300E003460AAA01A90CA8FFF7ABFE15
:100DD000DDE90C704D4600268346207800070AD4D2
:100DE000AB4500DA5D4601A8012D04DD411911F87B
:100DF000011C302907D04F4502DA17F1040F04DA3D
:100E0000012082460FE06D1EEEE7002F02DCED1B95
:100E10003E4403E0781CA84200DD7D1CB81B00F1B5
:100E2000010A4FF000472078000703D4AA4501DBF0
:100E30004FF0FF3A0021B7F1004F0DF143088DF854
:100E4000431024D002202B23002F01DA7F422D23D0
:100E50000A21021EA0F1010000DC5FB197FBF1FC4A
:100E600097FBF1F201FB1C7C17460CF1300C08F8E3
:100E700001CDEEE7A8F1010003702188090501D535
:100E8000452100E06521A0F1010800F8011C099846
:100E90000FA9A1EB0807FF1D00B10120411901EBCB
:100EA000EA70A1693844081A401EA0612078C00683
:100EB00002D42046FFF7B4FA099828B1D4E90121F9
:100EC0009047206A401C20622078C00622D5204628
:100ED000FFF7A6FA1EE0002E04DBB34502DD01A8F1
:100EE000805D00E03020D4E901219047206A401C59
:100EF0002062761CAAF101005FEA000A0AD100F024
:100F000019FAC0680168405CD4E901219047206A61
:100F1000401C2062281EA5F10105DCDC07E0D4E9B5
:100F2000012118F8010B9047206A401C2062381EEE
:100F3000A7F10107F3DC2046FFF788FA032011B080
:100F400041E600002DE9F04F04460D46D21D22F087
:100F5000070089B0D0E900974846394602F021F9E8
:100F60000246F80F01D02D2307E02068810701D544
:100F70002B2302E0202101EAC0038DF820300BB1C1
:100F8000012000E00020032A824601D0072A04DB6A
:100F90002946204600F0D2F93FE12078800601D4AE
:100FA0000D2500E0E569C7F30A560D2D49DA002149
:100FB0004FEA175B08464FF00000002F00F4400096
:100FC00007DA00EB80004FF4400100EBD07001EA3B
:100FD00060008115012901DD4FF0FF3100224FEA49
:100FE000850CBCF1180F06D31346ACF118004FF076
:100FF0008052C24003E04FF4801323FA0CF30CF14B
:101000000C0CBCF1200F04D3ACF1200C09FA0CF04D
:1010100001E007FA0CF000294FF0004801DD18B993
:101020000FE00ED140450CD319EB02095F4121B905
:10103000404502D19F4329EA0209BBEB175F00D06C
:10104000761C2088000502D57B48784402E07A4867
:101050007844193808AA302302F80A30037C0AF1D0
:101060000101002E0AF1020A53546A4602DC4FF0D5
:10107000300101E04FF031014FF001088DF8001010
:1010800002D0A6F2FF3603E059EA470100D06B4ECA
:10109000002D02DC2178090704D54FF002082E212B
:1010A0008DF80110C44600210BE0C7F303433F0154
:1010B000C35C491C6D1E02F80830052908F10108BF
:1010C00001DA002DF1DC00210CE000EB1973491C62
:1010D0001B786D1E082902F808304FEA091908F13B
:1010E000010801DA002DF0DC21688B0602D516E03C
:1010F000A8F10108E04505DD02EB080313F8013C07
:10110000302BF5D0B8F1000F09DD02EB080313F81E
:10111000013C2E2B03D1090701D4A8F10108002DB1
:1011200005DD3E2102F808106D1E08F10108407C23
:10113000002E02F8080008F1010804DA2D2076429A
:1011400002F8080002E02B2002F808000A214FF400
:101150007A70864208F101080BDB96FBF0F330331E
:1011600002F8083096FBF0F308F1010800FB136663
:1011700001E0642E0CDB642096FBF0F3303302F8C0
:10118000083096FBF0F308F1010800FB136601E05C
:101190000A2E06DB96FBF1F0303002F8080008F169
:1011A000010896FBF1F001FB1060303002F80800F6
:1011B000A16908F1010808EB050202EB0A00081A10
:1011C000A0612078C00602D42046FFF729F9216AE1
:1011D00008AE01EB0A00206204E0D4E9012116F810
:1011E000010B9047BAF1010AF7D22078C00602D568
:1011F0002046FFF715F96E4609E016F8010B3E2868
:101200000FD0D4E901219047206A401C2062B8F138
:101210000108F2D22046FFF719F909B00320BDE812
:10122000F08F206A2844206203E0D4E901213020B5
:1012300090476D1EEBD3F8E7762B000002FCFFFF12
:1012400010B5436913B1AFF3008001E0FFF721F956
:10125000012010BD127800F124010A7000224A70AA
:101260000122EDE711684FF0FF32E9E710B543695D
:1012700013B1AFF3008001E0FFF7A2F9012010BD28
:10128000128800F1240182840022C2840122EDE749
:1012900011684FF0FF32E9E770B516460C46054677
:1012A00000F040F8036893F80101012806D0FF2CF4
:1012B0000FD8185D68B101202C7070BDD3F80701FC
:1012C0003246214603F2071303442846BDE8704026
:1012D00018474FF0FF3070BD754600F0EBF8AE4692
:1012E00005006946534620F00700854618B020B532
:1012F000FEF7AEFFBDE820404FF000064FF00007BC
:101300004FF000084FF0000B21F00701AC46ACE8AD
:10131000C009ACE8C009ACE8C009ACE8C0098D461A
:101320007047000010B500F005F8001D10BD00BFAB
:10133000E127000000487047500700202DE9F041E8
:101340001F46044603260168072A01F4006004DBF7
:1013500008B116A505E016A503E008B115A500E043
:1013600015A521F010002060A069C01EA0610FB17A
:10137000401EA0612046FFF753F84FB1D4E9012188
:1013800038469047206A401C2062C01C206206E05C
:10139000206AFAE7D4E9012115F8010B9047761E7F
:1013A000F8D22046FFF752F8BDE8F0814E414E00DA
:1013B0006E616E00494E4600696E66002DE9F04789
:1013C000814616468AB0354878440DC88DE80D0030
:1013D00032487844801C03AC0DC884E80D0041F607
:1013E0009B300844372190FBF1F290FBF1F5A5F119
:1013F000800501FB12041B3C02D56442012000E081
:101400000020DFF898A080460027FA44AAF1BE0A1F
:101410000EE0E0070AD03246684607EB4701012399
:101420000AEB810100F022FB8DE8070064107F1CAD
:10143000002CEED1194F7F44AE3F19E0E80715D0DC
:1014400007EB04100DF1180A90E80E008AE80E0070
:10145000C068F04201D1981908903246012306A9CC
:1014600003A800F003FB03AB83E807006D10641CC6
:10147000002DE3D14FF0010332466946B8F1000F69
:1014800003A802D000F0DDFA01E000F0EFFAC9E9AC
:101490000001C9F808200AB0BDE8F08788280000DC
:1014A00010B50446AFF300802046BDE81040FEF7BB
:1014B000BABE000000487047300700204FF0013CE2
:1014C00050F8042B51F8043B9A4221D1A2EB0C03B3
:1014D000934313EACC1317D150F8042B51F8043B73
:1014E0009A4215D1A2EB0C03934313EACC130BD110
:1014F00050F8042B51F8043B9A4209D1A2EB0C039B
:10150000934313EACC13DBD04FF00000704700BFC9
:10151000D01A01BAB1FA81F101F0180122FA01F0F2
:10152000CB40C1F12001DBB2C0B2C01A2CFA01F3EA
:10153000D11A914311EAC311E6D17047014918202D
:10154000ABBEFEE72600020070475FEA400C08BF12
:1015500091F0000F4FEA8C234FEAC12243EA515128
:101560004FEA1C5018BF00F5F0404FEA300018BF9A
:1015700041F000415FEA6C5C00F02980BCF1FF3F64
:1015800008BF40F080407047130C06BF12044FF0B4
:10159000100C4FF0000C130E04BF12020CF1080CDB
:1015A000130F04BF12010CF1040C930F04BF92003F
:1015B0000CF1020CD30F04BF52000CF1010C1146C8
:1015C0004FF00002A0F11F00A0EB0C00704711F0DB
:1015D000004F08BF704731F000413FF4D5AF0B0C0E
:1015E00006BF09044FF0100C4FF0000C0B0E04BFA7
:1015F00009020CF1080C0B0F04BF09010CF1040CDB
:101600008B0F04BF89000CF1020CCB0F04BF490003
:101610000CF1010CCCF12003A0EB0C0022FA03F337
:1016200002FA0CF241EA030100F10100704720F0D8
:101630007F4C80EA030023F07F47ACEB070303F500
:101640007C5300F0004003F1FF032DE980494FEA8D
:10165000154B09B44FEA144325EA0B4E24EA03481C
:101660000FF2042606EB132749083E785FEA3202A0
:1016700003FB0667C7F5000707FB06F64FEA54377A
:101680004FEAD64606F1020607FB066CCCF1005C79
:101690004FEA1C472CEA074C07FB06F40CFB06F547
:1016A00004EB15464FEA961634BF00204FF0004079
:1016B0004FEAD13706FB07FC4FEA1C4C0CFB0BF73B
:1016C000D21B03FB0CF761EB07010CFB0EF7B0EB31
:1016D000074072EB17420CFB08F734BFA2EB07423E
:1016E000B2EB074261EB17414FEA0C444FEA910716
:1016F00006FB07FC4FEA1C4C0CFB0BF7B0EBC7409A
:1017000072EB573203FB0CF734BFA2EBC742B2EBCC
:10171000C74261EB57310CFB0EF7B0EBC70072EB21
:1017200057720CFB08F734BFA2EBC702B2EBC7023B
:1017300061EB5771039F4FEA816141EA921104EB1B
:10174000CC044FEAD1374FEA826206FB07FC42EA3B
:1017500090124FEA80604FEA1C4C0CFB0BF7D21B37
:1017600003FB0CF761EB07010CFB0EF7B0EB074036
:1017700072EB17420CFB08F734BFA2EB0742B2EB47
:10178000074261EB17414FEA8C554FEA910704EB92
:101790009C2406FB07FC4FEA1C4C0CFB0BF7B0EB40
:1017A000C74072EB573203FB0CF734BFA2EBC742C2
:1017B000B2EBC74261EB57310CFB0EF7B0EBC70041
:1017C00072EB57720CFB08F734BFA2EBC702B2EB07
:1017D000C70261EB577115EB4C254FEA816141EA75
:1017E00092114FEA82624FEAD13742EA901206FB29
:1017F00007FC44F100044FEA80604FEA1C4C0CFBEC
:101800000BF7D21B03FB0CF761EB07010CFB0EF788
:10181000B0EB074072EB17420CFB08F734BFA2EBAA
:101820000742B2EB074261EB174115EB1C154FEA7B
:10183000813141EA92414FEA823242EA90424FEAD4
:1018400080304FEA0C7644F1000448EA03434EEA44
:101850000B484FF0000EB2EB080C71EB030724BFEE
:10186000624639464EEB0E0E4FF0000B0018524107
:1018700049414BEB0B0BB2EB080C71EB03077BF10F
:10188000000B24BF624639464EEB0E0E4FF0000BA4
:101890000018524149414BEB0B0BB2EB080C71EBBA
:1018A00003077BF1000B24BF624639464EEB0E0E58
:1018B00051EA020718BF46F0010616EB0E7655F105
:1018C000000254F1000103D5BDE88901BDE800889C
:1018D000BDE88901BDE80048B619524141EB01015C
:1018E000A3F10103704780807F7E7D7C7B7A7978CD
:1018F000777676757473727171706F6E6E6D6C6CD5
:101900006B6A6A6968686766666564646363626176
:101910006160605F5F5E5E5D5D5C5C5B5B5A5A59F7
:101920005958585757565655555554545353525263
:101930005251515050504F4F4F4E4E4D4D4D4C4CBB
:101940004C4B4B4B4A4A4A49494948484847474704
:101950004746464645454544444444434343434241
:10196000424242414141002B9C4630D477002BD06B
:101970001CB54FEA370703B44FF010004FF01001C9
:10198000BAF1000F06D0BCF1000FDCBF40F0080038
:1019900040F008014FF000000FBCBDE810400BF113
:1019A000010BBBF1010F08BF5FEA170722BF12F15D
:1019B000010211F101014FF0004143F1000300F079
:1019C000004043EA00007047F9D35708D0E746EAE1
:1019D000064613F1400F4FEA16461FDD13F1200FA4
:1019E000DFBF16430A46002120335B42BED0C3F15D
:1019F000200746EA064602FA07F74FEA164646EA85
:101A00000706C3F1200722FA03F201FA07F721FAC9
:101A100003F14FF0000342EA0702A7E746EA020695
:101A200046EA06464FEA164646EA0106BCBF46EAC3
:101A30000646360C4FF000034FF000024FF0000155
:101A400094E72DE9804C9A46934670B491E83800AB
:101A500007C831EA400C48BF34EA430C03D5FFF70E
:101A6000E6FDFFF780FFF0BCBDE8008C2DE9804C5F
:101A70009A46934670B491E8380007C810F0804F3A
:101A800008BF13F0804F03D100F005F8FFF76BFF9C
:101A9000F0BCBDE8008C20F07F4780EA030023F013
:101AA0007F4C07EB0C03A3F57C5300F00040A3F13F
:101AB000FE0392F0000F00F0B38095F0000F00F0ED
:101AC00077802DE901494FEA11404FEA144621EA97
:101AD000004800FB06FC24EA064708FB06F607FB65
:101AE00008F800FB07F718EB06484CEB164C4FEADA
:101AF000124B18EB07484FEA15464CEB174022EA09
:101B00000B4E0BFB06FC25EA06470EFB06F607FB11
:101B10000EFE0BFB07F71EEB064E4CEB164C4FF080
:101B200000061EEB074E4CEB174B18EB0B0840F171
:101B3000000018EB0E0B58EB000840F100008F1A64
:101B40004FF000013CBFC943661B14BFB5EB040C4A
:101B500000213CBFC943F61B4FEA17444EEA8E0EE4
:101B600027EA04454FEA1C4704FB07622CEA074CAE
:101B700005FB07F70CFB05F604FB0CFC16EB074610
:101B800042EB174216EB0C4642EB1C421BEB0606DF
:101B900058EB0202414146EA9E0601D5BDE80189A3
:101BA000B619524141EB0101A3F10103BDE80189DE
:101BB0004FEA14454FEA114724EA054621EA074C4B
:101BC00005FB07F406FB07F70CFB06F105FB0CFC15
:101BD00011EB074144EB17444FEA124711EB0C415C
:101BE00044EB1C4422EA074C05FB07F206FB07F70F
:101BF0000CFB06F605FB0CFC16EB074642EB174206
:101C000016EB0C4642EB1C456A1854F1000148BF24
:101C10007047B619524141EB0101A3F1010370472E
:101C200095F0000F37D04FEA11424FEA144721EAEE
:101C3000024624EA074C02FB07F106FB07F70CFB00
:101C400006F402FB0CFC14EB074441EB17414FEA8E
:101C5000154714EB0C4441EB1C4125EA074C02FBF1
:101C600007F506FB07F70CFB06F602FB0CFC16EB70
:101C7000074645EB174516EB0C4645EB1C4212197F
:101C800051F1000148BF7047B619524141EB0101C3
:101C9000A3F1010370474FEA14454FEA114724EAC4
:101CA000054621EA074C05FB07F106FB07F70CFB8D
:101CB00006F24FF0000605FB0CFC12EB074241EB6D
:101CC000174112EB0C4251EB1C4148BF7047921870
:101CD00041EB0101A3F101037047FEE770470000EB
:101CE00006490020C8610648016941F0040101610C
:101CF000016941F04001016170470000C802002005
:101D000000200240064A0021D16106490A6942F0DA
:101D100002020A614861086940F0400008617047AA
:101D2000C802002000200240044B0022DA61044A6D
:101D3000136943F00103136101807047C80200205A
:101D40000020024014480022C168CB06134904D584
:101D5000CA6942F00202CA611022C3685B0705D556
:101D6000CB6943F00103CB6142F00402C369DB0796
:101D700007D0CB6943F00403CB61C16921F00101B5
:101D8000C161A2F58071013901D0C2607047C1699B
:101D900021F00101C161704700200240C80200200B
:101DA00070B5054600F09EFA0646114C09E0681C25
:101DB00007D025B100F096FA801BA84201D9032074
:101DC00070BDE068C007F2D1E068800601D5202030
:101DD000E060E068C00605D4E069C00702D1E068B1
:101DE000400703D5FFF7AEFF012070BD002070BD96
:101DF0000020024030B585B00D46044600F06EF973
:101E000001A9012081E831000020009004A9684662
:101E100000F0C6F800F018F905B030BD0088704732
:101E20002DE9F041074616460C4611A001F0ACFC26
:101E3000002504E0615D11A001F0A6FC6D1CB54217
:101E4000F8DB00F04BF90025761C09E0228807EB4F
:101E500045010023012000F001F96D1CADB2A41C66
:101E6000B5EB560FF2D3BDE8F04100F0EDB800003D
:101E7000436F6D6D616E643A20000000253032586A
:101E80002000000070B50C46054600F027F92246F8
:101E9000E3172946012000F0E1F8BDE8704000F0AA
:101EA000D3B810B590F821100022022905D00421E2
:101EB000816380F82020012010BD01680B6823F0A9
:101EC0000E030B6001680B6823F001030B6090F8B0
:101ED0004030C46B012101FA03F3636080F82110E4
:101EE00080F82020104610BD10B590F82110002475
:101EF000022903D00421816301243DE001680A68BE
:101F000022F00E020A6001680A6822F001020A60EB
:101F10001A4A0168914201D1012121E0174A143285
:101F2000914201D110211BE0144A2832914201D183
:101F3000891515E0114A3C32914201D189140FE014
:101F40000E4A5032914202D14FF4803108E00B4AE0
:101F50006432914202D14FF4801101E04FF0807160
:101F6000064A083A5160012180F82110002180F8CA
:101F70002010416B01B18847204610BD0800024087
:101F8000064810B54FF0FF31016100220261C160C7
:101F9000C26000F0E7F9002010BD00000010024010
:101FA0002DE9F047054626480F460126017E012906
:101FB0000FD00121814601762868DFF888804CF235
:101FC0005034022808D0A2462046FFF7E9FEA8B107
:101FD00031E00220BDE8F0872046FFF7E1FE08BBB4
:101FE0000120FFF77DFE2046FFF7DAFED8F810103B
:101FF000064621F00401C8F810101CE04FF0FF3035
:102000003860AC6811E02046FFF77CFE5046FFF7D1
:10201000C7FED8F81010060021F00201C8F8101011
:1020200001D03C6007E004F58064D5E9020100EBD3
:102030008120A042E7D8002189F818103046C9E76E
:10204000C8020020002002400348016941F08001DD
:102050000161002070470000002002402DE9F05F80
:1020600007461C4888460024017E15461E46012965
:1020700009D00121814601764CF2503A5046FFF7D3
:102080008FFE18B122E00220BDE8F09F012F02D0A0
:10209000022F00D00427D346DFF83CA022012846B7
:1020A0003146FEF7E7F881B208EB4400FFF73CFE4B
:1020B0005846FFF775FEDAF8102022F00102CAF840
:1020C000102018B9641CE4B2BC42E7D3002289F89E
:1020D0001820D9E7C802002000200240064900204D
:1020E0000A69120607D5054A4A60054A4A60096925
:1020F000090600D5012070470020024023016745F2
:10210000AB89EFCD2DE9F84FDFF8B8910024A9F1A4
:10211000040B23460F2709F1040AABF1040EC9E0B2
:102120000125A5402A40AA427DD1674ED1F804C0BE
:10213000ACEB0608B44532D014DCBCF1030F3AD046
:1021400009DCBCF1000F2AD0BCF1010F1CD0BCF19E
:10215000020F31D11DE0BCF1110F17D0BCF1120FED
:102160002AD119E0B8F5881F19D006DCB8F5803FF0
:1021700015D0B8F5801F1FD111E0B8F5001F0ED0A3
:10218000B8F5041F18D10AE0CB6815E0CB681B1D19
:1021900012E0CB6808330FE0CB680C330CE08B689F
:1021A0002BB1012B4FF0080303D0456104E0042359
:1021B00002E0056100E00023FF2A01D8064601E0A5
:1021C00000F104064FEA840501D9A5F12005D6F8EF
:1021D000008007FA05FC28EA0C0803FA05F548EA2E
:1021E0000508C6F800804D68ED0062D5374DAE6930
:1021F00046F00106AE61AD6924F0030605F0010565
:102200000095334D06EB050CDCF80850A607360F99
:1022100007FA06F825EA0805DFF8B880404503D13B
:102220004FF0000817E044E0DFF8AC80404502D1F1
:102230004FF001080FE0DFF8A480404502D14FF0D5
:10224000020808E0DFF89880404502D14FF003080B
:1022500001E04FF0040808FA06F848EA0508CCF84F
:1022600008804D68D9F80060ED024D4601D516434F
:1022700000E096432E604D68DAF80060AD025546E6
:1022800001D5164300E096432E604D68DBF80060F0
:10229000AD035D4601D5164300E096432E604D68C0
:1022A000DEF80060ED03754601D5164300E0964365
:1022B0002E60641C0D682A46E5407FF431AFBDE80E
:1022C000F88F0000080401400000111000100240C7
:1022D0000000014000080140000C014000100140D6
:1022E000001401400148806870470000040000208D
:1022F0000248816802781144816070470400002020
:10230000074810B5016841F010010160032000F09A
:1023100077F80F2000F006F800F026F8002010BD36
:102320000020024070B50D4D04464FF47A712878B4
:10233000B1FBF0F00A490968B1FBF0F000F04CFB8A
:1023400048B9102C07D200222146501E00F038F860
:1023500000206C6070BD012070BD000004000020F2
:1023600010000020704700000C4808B5816941F05A
:1023700001018161816901F001010091C16941F0B0
:102380008051C161C06900F08050009004484168EC
:1023900021F0E06141F00071416008BD0010024091
:1023A00000000140002809DB00F01F0201219140DC
:1023B0004009800000F1E020C0F8001170470000E3
:1023C000F0B40E4B1B680C46C3F30223C3F10705A0
:1023D000042D00D90425191D072901D2002300E08E
:1023E000DB1E012606FA05F1491E214099409E4058
:1023F000761E16403143F0BC00F0E7BE0CED00E065
:10240000064900F0070208684FF6FF03184040EA4B
:102410000220034A10430860704700000CED00E002
:102420000000FA052DE9F0470F46050061D0434E44
:10243000306800F00700B84209D2306820F0070089
:1024400038433060306800F00700B84251D1286846
:102450003B4C810712D5400703D5606840F4E0602B
:1024600060602878000703D5606840F460506060C1
:102470006068A96820F0F000084360602878C00711
:1024800028D06868012810D02168022810D0890758
:1024900000292EDA616821F0030101436160FFF732
:1024A00021FF804641F288390DE021688903EFE77A
:1024B0008901EDE7FFF716FFA0EB0801494502D9B6
:1024C0000320BDE8F0876068696800F00C00B0EB9D
:1024D000810FEFD1306800F00700B8420BD93068A7
:1024E00020F0070038433060306800F00700B84241
:1024F00001D00120E5E72878400705D56068E96844
:1025000020F4E060084360602878000706D5606822
:10251000296920F4605040EAC100606000F0A6F82C
:102520006168084AC1F30311515CC840064908605C
:1025300006480068FFF7F6FE0020C2E700200240D0
:1025400000100240563B0008100000200800002048
:102550002DE9F041FFF7C6FE304C0546206840F0FB
:102560000100206005E000BFFFF7BCFE401B022811
:1025700043D820688007F7D5206820F0F80040F0A5
:1025800080002060FFF7AEFE00250646656041F240
:10259000883704E0FFF7A6FE801BB8422DD860689C
:1025A00010F00C0FF6D11F491D4808601E48006846
:1025B000FFF7B8FE10B10120BDE8F081FFF792FEF1
:1025C0000646206820F08070206004E0FFF78AFE55
:1025D000801B022811D820688001F7D46560FFF7BE
:1025E00081FE0646206820F41020206007E000BF2E
:1025F000FFF778FE801B642801D90320DCE7206800
:102600008003F5D4206820F480202060606A40F0C8
:1026100080706062A5600020CEE7000000100240DC
:1026200000127A001000002008000020044805492C
:1026300000684968044AC1F30221515CC8407047F0
:102640001000002000100240663B000804480549C5
:1026500000684968044AC1F3C221515CC840704710
:102660001000002000100240663B00080E4A51682E
:102670000E4801F00C03042B11D0082B0FD10C488D
:10268000C1F38343C903C05C0AD55168084AC1F34A
:102690004041921E515C054A5043B0FBF1F0704737
:1026A00004494843704700000010024000127A00BD
:1026B000463B000800093D002DE9F84F040070D0AA
:1026C0002078C04DC00749D06868C0F38100012858
:1026D00007D06868C0F38100022809D16868C00388
:1026E00006D52868800339D560680028E7D035E032
:1026F0006068B0F5803F0BD010B1B0F5A02F11D0BD
:10270000286820F480302860286820F4802002E0C7
:10271000286840F480302860606890B1FFF7E2FDDF
:1027200006460AE0286840F480202860F0E700BFF1
:10273000FFF7D8FD801B642873D828688003F7D57D
:102740000CE0FFF7CFFD064605E000BFFFF7CAFD2E
:10275000801B6428F0D828688003F7D420789A4E2C
:1027600080074FF001094FF0000839D5686810F074
:102770000C0F07D06868C0F38100022809D168688F
:10278000C00306D42868800714D52069012808D121
:1027900010E02069B0B1C6F80090FFF7A3FD07462E
:1027A00005E00AE1FFF79EFDC01B0228C4D8286897
:1027B0008007F7D52868616920F0F80040EAC10079
:1027C00028600DE0C6F80080FFF78CFD074604E0A6
:1027D000FFF788FDC01B022823D828688007F7D49C
:1027E000207800072CD57948A169D9B1C0F80090AC
:1027F000FFF778FD074604E0FFF774FDC01B0228D1
:102800000FD8686A8007F7D571484FF4FA5100680D
:10281000B0FBF1F0009000BF0098411E0091FAD289
:102820000EE080E0C0F80080FFF75CFD074604E0A2
:10283000FFF758FDC01B022875D8686A8007F7D4D7
:102840002078400760D5E8690027C00008D4E8690F
:1028500040F08050E861E869012700F08050009066
:102860005C480168C90513D40168834641F480714E
:102870000160FFF737FD824606E000BFFFF732FD3B
:10288000A0EB0A0064284ED8DBF80000C005F5D59F
:10289000E06801280AD008B1052813D0286A20F082
:1028A00001002862286A20F0040002E0286A40F053
:1028B00001002862E06841F2883B98B1FFF712FD01
:1028C00082460BE0286A40F004002862EEE700BF71
:1028D000FFF708FDA0EB0A0159455AD8286A80077E
:1028E000F6D50CE0FFF7FEFC824605E0FFF7FAFCA8
:1028F000A0EB0A0159454CD8286A8007F6D41FB1CD
:10290000E86920F08050E861E06988B36968C1F344
:102910008101022944D00228C6F8608004D0FFF764
:10292000E1FC044638E034E0FFF7DCFC074604E055
:10293000FFF7D8FCC01B02282BD828688001F7D4E9
:10294000206AB0F5803F05D16868A16820F40030A6
:1029500008436860D4E908010843696821F47411E8
:1029600008436860C6F86090FFF7BCFC044606E0C8
:1029700025E000BFFFF7B6FC001B022809D8286835
:102980008001F7D51BE000BFFFF7ACFC001B02285D
:1029900002D90320BDE8F88F28688001F4D40EE046
:1029A0000128F7D06868226A00F48031914204D18E
:1029B000616A00F47010884201D00120EAE700202B
:1029C000E8E700000010024000004242800442425A
:1029D000100000200070004010B5401EB0F1807F54
:1029E00001D3012010BD4FF0E02460610F2160177A
:1029F00000F0EBFB0020A06107202061002010BD4B
:102A000070477047F8B5016804460868CA684B69A2
:102A100010F00F0F4FF0000559D003F0010602F43B
:102A20009077374365D0C10705D0D10503D5616CD8
:102A300041F001016164410705D5D90703D0616CFC
:102A400041F002016164810705D5D90703D0616CAB
:102A500041F004016164010707D502F02001314310
:102A600003D0616C41F008016164616C00293AD0C7
:102A7000800604D5900602D5204600F074FA20683E
:102A80004069616CC0F38010090700D460B3204630
:102A900000F042FA20684069400621D520681430D1
:102AA00050E8001F21F0400140E80012002AF5D153
:102AB000E06BA8B16D494163E06BFFF715FA0028A0
:102AC00011D0E06B416B01B0BDE8F04008478306D0
:102AD0000FD593060DD52046BDE8F84000F043BA67
:102AE0002046FFF78EFFF8BD2046FFF78AFF65649A
:102AF000F8BD266B2023012E7CD1C6067AD5D606DA
:102B000078D508684868009048694FF0020640068A
:102B100040D5E16B086840680004000CE8D0A28D45
:102B20008242E5D9E085886920282DD020680C30C4
:102B300050E8001F21F4807140E80012002AF5D10E
:102B40002068143050E8001F21F0010140E8001215
:102B5000002AF5D12068143050E8001F21F0400110
:102B600040E80012002AF5D184F84230256320683D
:102B70000C3050E8001F21F0100140E80012002A3C
:102B8000F5D1E06BFFF78DF96663A08DE18D401AFA
:102B900081B22AE0A08DE18D401A81B2E08D00283B
:102BA000A6D00029A4D022680C3252E8000F20F4ED
:102BB000907042E80007002FF5D12068143050E8EB
:102BC000002F22F0010240E80027002FF5D184F801
:102BD0004230256320680C3050E8002F22F01002AC
:102BE00040E80023002BF5D166632046FFF708FF7D
:102BF000F8BDFFE705062BD5150629D594F8410049
:102C00002128F5D1A068B0F5805F01D12069B0B16D
:102C1000206A411C2162216800784860E08C401ED7
:102C20000004000CE084E3D12068C16821F0800139
:102C3000C1602068C16841F04001C160D8E7206AE6
:102C40000088C0F308004860206A801C2062E5E725
:102C50004006CDD55006CBD5CA68204622F04002AA
:102C6000CA6084F8413000F017F9C1E7092F000865
:102C700070B5040004D094F84100002510B106E0BE
:102C8000012070BD84F84050204600F023F8242035
:102C900084F841002068C16821F40051C1602046D9
:102CA00000F0C2F92068016921F4904101612068B7
:102CB000416921F02A0141612068C16841F4005155
:102CC000C1606564202084F8410084F84200656397
:102CD000002070BD70B586B0002400940194029469
:102CE00003942E4E03682E49022003222D4DB34239
:102CF00026D18B6943F480438B618B6903F4804355
:102D000004938B6943F004038B618969039201F09A
:102D1000040104910102CDE9001069462846FFF73D
:102D2000F1F92815CDE90004694628460294FFF719
:102D3000E9F9002211462520FFF742FB252028E073
:102D4000194EB34227D1CB6943F40033CB61CB6931
:102D500003F4003304938B6943F004038B618969A6
:102D6000039201F0040104910421CDE900106946A9
:102D70002846FFF7C7F90820CDE900046946284630
:102D80000294FFF7BFF9002211462620FFF718FB37
:102D90002620FFF707FB06B070BD00000038014099
:102DA00000100240000801400044004090F842300A
:102DB000202B01D00220704721B11AB100230363F8
:102DC00000F08EB90120704710B5006807498842AD
:102DD0000AD10748007800F0BBFCBDE81040012292
:102DE00003490448FFF7E2BF10BD0000003801406E
:102DF00000000020300000202DE9F843044690F840
:102E00004100984616460D46202802D00220BDE813
:102E1000F88385B17EB100206064212084F84100F0
:102E2000FFF760FAA6848146E684A0682027B0F503
:102E3000805F02D003E00120E9E7206910B12E464F
:102E400000250EE000260CE08021204600F063F90A
:102E5000A8B9C6B116F8010B21684860E08C401E85
:102E6000E084E08C4B464FF00002CDF80080002853
:102E7000EAD14FF04001204600F04DF940B184F80E
:102E800041700320C3E735F8020BC0F30800E3E705
:102E900084F841700020BAE77047FEE7FEE7FEE7DE
:102EA00070477047FFF724BA30B58FB028216846C5
:102EB000FDF78CFA14210AA8FDF788FA012108040D
:102EC000CDE900100024029402250491CDE90750B9
:102ED0004FF4E01009906846FFF7EEFB08B172B6B8
:102EE000FEE70F20CDE90A054FF48060CDE90C40E4
:102EF00002210AA80E94FFF795FA002801D072B6B5
:102F0000FEE70FB030BD704710B5406A0021C185A3
:102F1000C184FFF776FD10BD01680C3151E8002F28
:102F200022F4907241E80023002BF5D1016814319E
:102F300051E8002F22F0010241E80023002BF5D1D7
:102F4000016B012909D101680C3151E8002F22F0F1
:102F5000100241E80023002BF5D1202180F8421017
:102F600000210163704708B590F84210222901D072
:102F7000022008BD82684FF480539A4201D1016952
:102F800021B1816A9A421BD04AB10AE00268816A83
:102F90005268C2F308020A80816A891C08E002694B
:102FA00072B10268526802F07F020A70816A491C9D
:102FB0008162C18D491E0904090CC18503D01BE043
:102FC00002685268F1E70168CA6822F02002CA600C
:102FD0000168CA6822F48072CA6001684A6922F0F6
:102FE00001024A61202180F8421000214163026BF6
:102FF000012A03D0FFF7E8FE002008BD0163016845
:103000000C3151E8002F22F0100241E80023002B80
:10301000F5D101680A68D20602D50A6849680091AC
:10302000818DFFF7EDFCE7E770B5044600680169A4
:10303000E26821F44051114301612169A06808430D
:10304000616908432168CA6841F20C639A430243EC
:10305000CA6020684169A26921F44071114341614D
:103060001E492068884202D1FFF7F0FA01E0FFF71D
:10307000DDFA00EBC00101EB001260686421800002
:10308000B2FBF0F3B3FBF1F36FF018067343B2FB3E
:10309000F0F5B2FBF0F605EB8305322303EB0515E3
:1030A000B5FBF1F5B6FBF1F605F0F00505EB0615FD
:1030B000B2FBF0F6B2FBF0F0B0FBF1F06FF01802EB
:1030C000504306EB800003EB0010B0FBF1F02168E9
:1030D00000F00F002844886070BD000000380140F7
:1030E00081628285C28500214164222180F84210DC
:1030F000016921B10168CA6842F48072CA6001683E
:103100004A6942F001024A610068C16841F0200149
:10311000C160002070472DE9F843984617460D46D8
:103120000446089E24E0701C22D0FFF7DBF8A0EBD9
:103130000800B0421AD8CEB12068C168490717D537
:10314000802D15D0402D13D00168C94309070FD435
:1031500001680025406800902046FFF7DDFE08204A
:10316000606484F840500120BDE8F8830320FBE749
:103170002068006835EA000004D00020B842D2D0B0
:103180000020F1E70120F9E70148FFF73BBC000010
:10319000300000200148FFF735BC00007800002017
:1031A000FEE7490050EAC12018BF04204A0D18BFAD
:1031B00040F0010040F2FF72B2EB515F08BF40F0F7
:1031C0000200012808BF052070470907090E0028E2
:1031D00004DB00F1E02080F80014704700F00F00DD
:1031E00000F1E02080F8141D704730380A2801D221
:1031F000012070470020704710B50446FFF7A8F97A
:10320000FEF7BEFE0648016821F4E0210160206857
:1032100080F30888606803490860BDE810400047F3
:1032200024ED00E02C00002010B50268074C4A4055
:1032300000210260134602F001025242224082EA5B
:103240005302491C02600829F4D310BD2083B8ED55
:103250000249C860002100F029B900001C000020CC
:1032600008B5FFF74DF8FFF71FFE2748816941F0C9
:1032700020018161816901F020010091816941F0A3
:10328000040181618069214900F004000090204818
:103290004FF4E13500240160C0E901540C26C460FC
:1032A000C0E904468461C461FFF7E2FC08B172B66C
:1032B000FEE71748174948300160C0E90154C4606F
:1032C000C0E904468461C461FFF7D2FC08B172B65C
:1032D000FEE7012210490E48FFF768FD0C489030C8
:1032E000FFF7B6FF0A4800F049FA0C4C2046FEF7FB
:1032F00095FDA0F57F41FF3902D12046FEF7C2FDC2
:1033000000F05AFAFCE700000010024000380140CB
:1033100030000020004400400000002000E00108D0
:103320002DE9F0410878534C0025C0B1012830D078
:10333000514E524FDFF8488102282DD0032860D02B
:10334000012000F0F1F928214E48FDF71DF86570C5
:1033500028214C48FDF718F86570BDE8F0818878A1
:1033600020718107B1F1804FA0F105004FEAE071B3
:1033700000EB91700BD0012101EBA000A070C1B255
:1033800041A000F001FA002000F0CEF9E0E780084B
:10339000F4E748796071F6E7E078A27890420AD2C3
:1033A000384A891C283202EB80001022FCF7A7FF64
:1033B000E078401CE070A178C0B28842E3D137A029
:1033C00000F0E2F96079D0B93046FEF727FD10F041
:1033D000FF00A07102D0012811D106E02079401F22
:1033E00082B2A06807EB001005E02079A168401FB9
:1033F00082B208EB011023492831FEF711FDE57078
:10340000C1E7A068401CA06060790128BBD1A07909
:1034100010B101281DD10DE001213046FEF7EAFC74
:1034200001213046FEF72EFD32214046FEF7E2FC38
:1034300038460CE001213046FEF7DCFC0021304626
:10344000FEF720FD32213846FEF7D4FC4046FFF758
:10345000D3FE0020A56000F067F9BFF34F8F11483D
:103460000168114A01F4E06111430160BFF34F8F1D
:1034700000BFFDE71C00002000E00108005000082C
:1034800000180108E80600206E756D5F7365676DB2
:10349000656E74733A2025642C00000063686563D0
:1034A0006B0000000CED00E00400FA05002280F83B
:1034B000F82180F8F92180F80012C0F8D020C0F877
:1034C000D420C0F8CC20C0F8D820A0F8DE2080F8A6
:1034D000E32000F053BA00002DE9F04716460F46EE
:1034E0000446002504E0795D204600F06FF96D1C6C
:1034F000B542F8D300F09DF83F494FF47A73086065
:10350000D4F8C420821A9A4201D2012200E000229B
:10351000D4F8C8508A46411B994201D2012100E0EB
:103520000021894694F8E73094F8E6105B1AD9B286
:10353000102921D294F8E2508D421DD994F8E4006C
:10354000084400F00F0000EB400004EB800594F805
:10355000000200F07CF8A9790B3188423BD394F843
:10356000E70028722946204600F024FA94F8E70084
:10357000401C84F8E7002EE069B362B394F8E420BD
:10358000DFB202EB420104EB81052968461A0021F3
:103590000FE000BF02EB420C54F82C30C31AB342C8
:1035A00002D91E4604EB8C05521C491C02F00F0286
:1035B000C9B2B942EED32968401A32280BD394F825
:1035C000000200F044F8A9790B31884203D3294660
:1035D000204600F0EFF9D4F8C010DAF80000401AE5
:1035E000192807D9B9F1000F04D02046BDE8F047EB
:1035F00000F086B9BDE8F08718000020FEB5064649
:103600001C4617460D4690F8000200F020F804F121
:103610000B0188420CD34FF6FF700021CDE900105A
:10362000029405F03F013B460022304600F014F8BA
:10363000FEBDFEF757BE000003480160001F016891
:103640004906FCD5704700000438014070474FF42C
:1036500000707047704700002DE9F0470446DDE92F
:1036600009950220089E84F8FF01C01EC4F8F401E9
:1036700094F80002984692460F4604F5FA74FFF754
:10368000E9FF207BAA21FFF7D7FF207BAA21FFF7C4
:10369000D3FF207BAA21A4F5FA74FFF7CDFF012206
:1036A0003946204600F048F9380604D50122514633
:1036B000204600F041F901222946204600F03CF95D
:1036C0000CE000BF18F806100122204600F034F983
:1036D000761CB6B26D1E06EA0906EDB2002DF1D1D8
:1036E000D4F8F4010022C543290E204600F024F945
:1036F0000022C5F30741204600F01EF90022C5F361
:103700000721204600F018F9E9B20022204600F017
:1037100013F994F800025521FFF78EFF94F8000288
:10372000BDE8F047FFF792BF08B504218DF80010FF
:1037300001218DF801108DF8020004486A46032328
:103740000021C068FFF75AFF08BD00001C000020E0
:10375000094910B54A78074C531CDBB20A2802D03D
:10376000A0544B7010BD0020A0544B700120087075
:1037700010BD0000E80600201C0000200149086080
:1037800070470000140000200FB400B599B01BAAC8
:1037900068461A99FCF782FD6846FCF791FD82B2F3
:1037A0000448642369460068FFF726FB19B05DF8FA
:1037B00014FB000014000020034815220149C068D2
:1037C000FFF78ABEE80600201C0000202DE9F0412A
:1037D000044690F8F80100260D46022814D0AA2DC0
:1037E0001BD084F8F86100BF94F8F91103274FF05B
:1037F000050804F5F8720A297ED2DFE801F02712E5
:10380000293040555A626C7884F8F861AA2D02D0AC
:1038100055291BD070E001205AE0401C84F8F801C3
:10382000E2E784F8FB5184F8FA614FF0FF30C4F806
:10383000F00129461046FFF7F7FC280601D50220C3
:1038400046E084F8FC6100BF84F8F971BDE8F081BE
:1038500084F8FC5129461046FFF7E6FCF4E784F8AB
:10386000FD5184F8FE5129461046FFF7DDFC94F81F
:10387000FD0108B104202BE084F8F981E6E794F813
:10388000FA0104F1EC03411C84F8FA11C5542946ED
:103890001046FFF7C9FC94F8FD01401E10F0FF0030
:1038A00084F8FD01E8D0D1E72806C4F8EC01062031
:1038B0000EE0D4F8EC0140EA0540C4F8EC01072022
:1038C00006E0D4F8EC0140EA0520C4F8EC01082039
:1038D00084F8F901BAE7D4F8EC012843C4F8EC0104
:1038E000D4F8F011C943884206D10920F0E7552DDC
:1038F00002D1204600F076F884F8F961A6E70000CE
:103900003EB5044690F80002FFF7A1FE0B280FD346
:103910000122FF2100208DE8070094F8E82004F13F
:10392000E8032046FFF798FE02480068C4F8C0008C
:103930003EBD00001800002070B5044616460D4636
:1039400090F80002FFF778FE26B1294604F5FA70D8
:10395000FFF76AFC0226AA2D0CD194F8FF01401E45
:1039600010F0FF0084F8FF0106D194F80002552101
:10397000FFF762FE84F8FF6170BD0000002180F84F
:10398000E21080F8E41080F8E510A0F8DC10A0F850
:10399000E01080F8E710064A80F8E61080F8E8109A
:1039A0001268C0F8C420C0F8C020C0F8C810704722
:1039B000180000203EB50C468B79898840F2FF3212
:1039C0008DE80E00E179227A41F08001034BFFF788
:1039D00043FE0348006820603EBD0000E80200206E
:1039E000180000202DE9F0413D4990F8FB510446B4
:1039F00000F1EC0690F8FE7190F8FC010968C4F83B
:103A0000C410FE2D5DD0FF2D17D02A060BD5C4F8AB
:103A1000C81094F8E81081425DD1491C84F8E81080
:103A20002046FFF76DFF94F8003205F03F003A465C
:103A30003146BDE8F041FFF773BC337894F8E610E7
:103A40001B1ADDB2421A94F8E730D2B2591AC9B241
:103A50008A4233D884F8E600002019E094F8E41094
:103A600001EB410104EB810394F8E210491E84F854
:103A7000E21094F8E410491C01F00F0184F8E410FE
:103A8000B4F8DC109B79C91A401CA4F8DC10C0B251
:103A90009042E3D394F8E46000270BE006EB460085
:103AA00004EB80012046FFF785FF761C7F1C06F0A3
:103AB0000F06FFB2AF42F1D3BDE8F08154F8D00F4A
:103AC0000BE0D4F8D800401CC4F8D8002046BDE86C
:103AD000F041FFF753BF54F8D40F401C2060EBE7D0
:103AE0001800002010B500290AD00878002807D057
:103AF00005487844FDF7E2FC002801D0002010BD05
:103B00000248784410BD00009A01000092010000B4
:103B100010B500290AD00878002807D00548784455
:103B2000FDF7CCFC002801D0002010BD02487844ED
:103B300010BD00008A01000082010000FDF7CBB833
:103B4000FDF700BA010202030405060708090A0B83
:103B50000C0D0E0F1010000000000000000001020C
:103B60000304060708090000000001020304000026
:103B700000000000000000003031323334353637A9
:103B800038394142434445464030580030313233A1
:103B900034353637383961626364656640307800A1
:103BA0000400000800000000000000020001000006
:103BB00010303132333435363738396162636465F9
:103BC0006678700030313233343536373839414217
:103BD000434445465850000002400000000000A049
:103BE0000000000005400000000000C800000000C8
:103BF0000C4000000000409C000000001940000044
:103C00000020BCBE0000000034400000BFC91B8E75
:103C100000000004B5400000504BCFD06607E2CF53
:103C2000010000006C4100003E8251AADFEEA73483
:103C300001000000D9420000DCB5A0E23A301F9735
:103C4000FFFFFFFFB4450000FD25A0C8E9A3C14F59
:103C5000FFFFFFFFFF3F00000000008000000000AA
:103C6000FF3F00000000008000000000B83D000899
:103C7000000000203000000028010008E83D000896
:103C800030000020600D0000440100081C0000000E
:103C900043000000F8FFFFFF0C0000000E000000D2
:103CA0000F0000002E000000100100004300000083
:103CB000F8FFFFFF0040404040404040404041414D
:103CC00041414140404040404040404040404040F1
:103CD000404040404005020202020202020202028B
:103CE0000202020202202020202020202020200288
:103CF0000202020202029090909090901010101018
:103D000010101010101010101010101010101010B3
:103D10000202020202028888888888880808080847
:103D20000808080808080808080808080808080813
:103D3000020202024000000000000000000000003B
:103D40000000000000000000000000000000000073
:103D50000000000000000000000000000000000063
:103D60000000000000000000000000000000000053
:103D70000000000000000000000000000000000043
:103D80000000000000000000000000000000000033
:103D90000000000000000000000000000000000023
:103DA0000000000000000000000000000000000013
:103DB0000000000000000000000000000100000002
:103DC000100000000000000000127A000000000057
:103DD00000000000000000000000000000000000E3
:083DE0000000000000000000DB
:04000005080000ED02
:00000001FF
